{
  "contractName": "Test",
  "abi": [
    {
      "inputs": [],
      "name": "a",
      "outputs": [
        {
          "internalType": "uint256",
          "name": "",
          "type": "uint256"
        }
      ],
      "stateMutability": "view",
      "type": "function"
    },
    {
      "inputs": [],
      "name": "hello",
      "outputs": [
        {
          "internalType": "string",
          "name": "",
          "type": "string"
        }
      ],
      "stateMutability": "view",
      "type": "function"
    },
    {
      "inputs": [],
      "name": "sumNum",
      "outputs": [
        {
          "internalType": "uint256",
          "name": "",
          "type": "uint256"
        }
      ],
      "stateMutability": "view",
      "type": "function"
    },
    {
      "inputs": [
        {
          "internalType": "uint256",
          "name": "start",
          "type": "uint256"
        },
        {
          "internalType": "uint256",
          "name": "end",
          "type": "uint256"
        }
      ],
      "name": "plus",
      "outputs": [],
      "stateMutability": "nonpayable",
      "type": "function"
    },
    {
      "inputs": [],
      "name": "getSumNum",
      "outputs": [
        {
          "internalType": "uint256",
          "name": "",
          "type": "uint256"
        }
      ],
      "stateMutability": "view",
      "type": "function"
    },
    {
      "inputs": [
        {
          "internalType": "uint256",
          "name": "start",
          "type": "uint256"
        },
        {
          "internalType": "uint256",
          "name": "end",
          "type": "uint256"
        }
      ],
      "name": "plus2",
      "outputs": [
        {
          "internalType": "uint256",
          "name": "",
          "type": "uint256"
        }
      ],
      "stateMutability": "nonpayable",
      "type": "function"
    },
    {
      "inputs": [],
      "name": "helloWorld",
      "outputs": [
        {
          "internalType": "string",
          "name": "",
          "type": "string"
        }
      ],
      "stateMutability": "view",
      "type": "function"
    },
    {
      "inputs": [],
      "name": "helloWorldNoView",
      "outputs": [
        {
          "internalType": "string",
          "name": "",
          "type": "string"
        }
      ],
      "stateMutability": "nonpayable",
      "type": "function"
    }
  ],
  "bytecode": "0x6080604052600360005560006001556040518060400160405280600d81526020017f68656c6c6f576f726c64212121000000000000000000000000000000000000008152506002908051906020019061005992919061006c565b5034801561006657600080fd5b50610170565b8280546100789061013e565b90600052602060002090601f01602090048101928261009a57600085556100e1565b82601f106100b357805160ff19168380011785556100e1565b828001600101855582156100e1579182015b828111156100e05782518255916020019190600101906100c5565b5b5090506100ee91906100f2565b5090565b5b8082111561010b5760008160009055506001016100f3565b5090565b7f4e487b7100000000000000000000000000000000000000000000000000000000600052602260045260246000fd5b6000600282049050600182168061015657607f821691505b6020821081141561016a5761016961010f565b5b50919050565b6106028061017f6000396000f3fe608060405234801561001057600080fd5b50600436106100885760003560e01c8063bd0111321161005b578063bd01113214610103578063c605f76c14610121578063de90eafc1461013f578063e469d8861461016f57610088565b80630dbe671f1461008d57806310082bcd146100ab57806319ff1d21146100c957806366098d4f146100e7575b600080fd5b61009561018d565b6040516100a2919061039f565b60405180910390f35b6100b3610193565b6040516100c09190610453565b60405180910390f35b6100d1610225565b6040516100de9190610453565b60405180910390f35b61010160048036038101906100fc91906104a6565b6102b3565b005b61010b6102c9565b604051610118919061039f565b60405180910390f35b6101296102d3565b6040516101369190610453565b60405180910390f35b610159600480360381019061015491906104a6565b610365565b604051610166919061039f565b60405180910390f35b610177610380565b604051610184919061039f565b60405180910390f35b60005481565b6060600280546101a290610515565b80601f01602080910402602001604051908101604052809291908181526020018280546101ce90610515565b801561021b5780601f106101f05761010080835404028352916020019161021b565b820191906000526020600020905b8154815290600101906020018083116101fe57829003601f168201915b5050505050905090565b6002805461023290610515565b80601f016020809104026020016040519081016040528092919081815260200182805461025e90610515565b80156102ab5780601f10610280576101008083540402835291602001916102ab565b820191906000526020600020905b81548152906001019060200180831161028e57829003601f168201915b505050505081565b80826102bf9190610576565b6001819055505050565b6000600154905090565b6060600280546102e290610515565b80601f016020809104026020016040519081016040528092919081815260200182805461030e90610515565b801561035b5780601f106103305761010080835404028352916020019161035b565b820191906000526020600020905b81548152906001019060200180831161033e57829003601f168201915b5050505050905090565b600081836103739190610576565b6001819055905092915050565b60015481565b6000819050919050565b61039981610386565b82525050565b60006020820190506103b46000830184610390565b92915050565b600081519050919050565b600082825260208201905092915050565b60005b838110156103f45780820151818401526020810190506103d9565b83811115610403576000848401525b50505050565b6000601f19601f8301169050919050565b6000610425826103ba565b61042f81856103c5565b935061043f8185602086016103d6565b61044881610409565b840191505092915050565b6000602082019050818103600083015261046d818461041a565b905092915050565b600080fd5b61048381610386565b811461048e57600080fd5b50565b6000813590506104a08161047a565b92915050565b600080604083850312156104bd576104bc610475565b5b60006104cb85828601610491565b92505060206104dc85828601610491565b9150509250929050565b7f4e487b7100000000000000000000000000000000000000000000000000000000600052602260045260246000fd5b6000600282049050600182168061052d57607f821691505b60208210811415610541576105406104e6565b5b50919050565b7f4e487b7100000000000000000000000000000000000000000000000000000000600052601160045260246000fd5b600061058182610386565b915061058c83610386565b9250827fffffffffffffffffffffffffffffffffffffffffffffffffffffffffffffffff038211156105c1576105c0610547565b5b82820190509291505056fea264697066735822122055b67e19ed54cf7ab80bf01e2d2f6fe509e330a82f09cd18616b2a2ac3f33dc464736f6c634300080b0033",
  "immutableReferences": {},
  "source": "// SPDX-License-Identifier: GPL-3.0\r\npragma solidity >=0.7.0 <0.9.0;\r\n\r\ncontract Test {\r\n    uint256 public a = 3;\r\n    uint public sumNum = 0;\r\n    string public hello = \"helloWorld!!!\";\r\n\r\n    //4. parameter  return   function\r\n    function plus(uint256 start, uint256 end) public {\r\n        sumNum = start + end;\r\n    }\r\n\r\n    function getSumNum() public view returns (uint) {\r\n        return sumNum;\r\n    }\r\n    // plus     getSumNum    \r\n    function plus2(uint256 start, uint256 end) public returns (uint) {\r\n        return sumNum = start + end;\r\n    }\r\n    // plus2   output    plus2   getSumNum()      \r\n    //    return  .\r\n\r\n    // view    ? view  ?\r\n    function helloWorld() public view returns (string memory) {\r\n        return hello;\r\n    }\r\n\r\n    function helloWorldNoView() public returns (string memory) {\r\n        return hello;\r\n    }\r\n\r\n}\r\n\r\n",
  "sourcePath": "C:\\Users\\L107\\Desktop\\solidtiy\\contracts\\Test.sol",
  "compiler": {
    "name": "solc",
    "version": "0.8.11+commit.d7f03943.Emscripten.clang"
  },
  "schemaVersion": "3.4.4",
  "updatedAt": "2022-06-14T05:48:18.689Z",
  "devdoc": {
    "kind": "dev",
    "methods": {},
    "version": 1
  },
  "userdoc": {
    "kind": "user",
    "methods": {},
    "version": 1
  }
}